:03000000020006F5
:03005F0002000399
:030003000200DD1B
:2000620075B1677E007F01EE24FFFCEF34FFFD8C068D07EC4D70F0E5B130E7FB75B288228F
:20008200759850758920758DDCD28E438E10438780D29943A4012275FFDE75FFAD1200621E
:2000A20012008243E10443E34022AF8210990280FB8F992210980280FBAF998F82C0071202
:2000C20000ACD0078F82222098057582FF800BC2988599821200AC8599822212009975820E
:2000E200201200AC1200EF1200FF80FB2243A7D853A7FC43B00353A6FE43A0012230A003F3
:2001020002019020B02320B120D2B6D2B7C2B3D2B474EDC0E07407C0E07480C0E01201D2C5
:200122001581158115810201AD20B02230B11FD2B6C2B7D2B3D2B47408C0E07408C0E074A1
:2001420080C0E01201D2158115811581805D30B02220B11FC2B6D2B7D2B3D2B47415C0E0D2
:200162007408C0E07480C0E01201D21581158115818038D2B3D2B4741FC0E07408C0E074A0
:2001820080C0E01201D2158115811581801DD2B6C2B4D2B3D2B7742CC0E07408C0E074809D
:0C01A200C0E01201D215811581158122E8
:2007ED0062696C65642069732072656420322050427320707265737365640062757A7A65D8
:20080D0072206973206F6E006C6564206973206F6E000D2062696C6564206F66660A000D93
:19082D0020536C69646520737769746368206973206F66662020200A002E
:06003500E478FFF6D8FD9F
:200013007900E94400601B7A00900851780175AF00E493F2A308B8000205AFD9F4DAF2751C
:02003300AFFF1D
:20003B007800E84400600A790175AF00E4F309D8FC7800E84400600C7900900001E4F0A3B4
:04005B00D8FCD9FAFA
:2001AE00C0098581091200ACD0092285823185833285F033E4F52EF52FF5308508349001E4
:2001CE00AE0202A9C009858109E50924FBFF8F34E4F52EF52FF530E50924FBF88631088675
:0D01EE00320886339001AE1202A9D009221A
:2001FB00AF82C024C025C0261202088007C022C0238F8222158115811581052CE4B52C02AF
:20021B00052D22AF8274302FFF24C6500A74072FFF3000034307208F820201FBE582FFC4A9
:20023B00540FF582C00712021ED007740F5FF58202021E85820A85270B85280C85290D85BD
:20025B002A0EAA2B750F20EA2AFAE50E235401FF8A064EFAE50B250BF50BE50C33F50CE558
:20027B000D33F50DE50E33F50EC3EA950A4008EAC3950AFA430B01E50F14FF8F0F70C8856D
:20029B000B27850C28850D29850E2A8A2B22858222858323852E24852F25853026E4F52C25
:2002BB00F52DAD31AE32AF338D828E838FF01207CDFC74012DF531E43EF5328F33ECFF70B2
:2002DB00030207AEBF250280030207A6C201C202C203C204C205C206C207C20875350075DE
:2002FB0036007537FFAA31AB32AE338A828B838EF01207CDFFA3AA82AB838A318B328E33B6
:20031B00BF25078F821201FB8098BF3000402DEF24C6402874FFB53712E53675F00AA42F35
:20033B00FC24D0F53670C4D20280C0E53775F00AA4FC8F05ED2C24D0F53780AFBF2E0A74AD
:20035B00FFB537A775370080A2BF6100400CEF248540075307DFD2008002C200BF20028027
:20037B006DBF2B028063BF2D028059BF42028063BF43028068BF440302054CBF4603020525
:20039B0062BF4803020306BF490302054CBF4A03020306BF4C028040BF4F03020553BF500F
:2003BB00030204E1BF5302805ABF5403020306BF5503020558BF580302055DBF5A03020314
:2003DB0006020566D201020306D203020306D204020306D206020306D20702030630060AE9
:2003FB00E53414F9893487078011E53424FEFE8E348E018705098706198D078F821201FB68
:20041B0002056FE53424FDFE8E348E01870409870509870619198C278D288E298C828D839D
:20043B008EF01207B5AD82AE8374FFB537028D37200126C3ED95365020E536C39DF536AE4A
:20045B00368E041EEC6010758220C006C0051201FBD005D00680EA8E36AE378527828528F6
:20047B00838529F01207CDFCFF602F8E041EC374808CF063F08095F050208F82C006C00589
:20049B001201FBD005D006AA27AB28AC290ABA00010B8A278B288C2980C120010302056F4B
:2004BB00C3ED9536400302056FE536C39DF536AE368E041EEC700302056D758220C00612F1
:2004DB0001FBD00680EBE53424FDFC8C348C01870209870309870419198A278B288C29AC9A
:2004FB0029BC800040047F438014BC600040047F50800BBC400040047F4980027F588F82B6
:20051B00C0071201FB75823A1201FB7582301201FB7582781201FBD007BF4902800BBF507F
:20053B000280068528821202378527821202378023D20575350A801C753508801775350A5E
:20055B008012753510800DD20880098F821201FB80028E3630085CE53424FCFE8E348E01C3
:20057B0087020987030987040987061919198A278B288C298E2A75274675280875298085D4
:20059B00273985283A85293B74012539FAE4353AFCAE3B8A278C288E29853982853A8385E8
:2005BB003BF01207CDFEFF70030202BD8F821201FB80CCE53570030202BD75381530062D00
:2005DB00E53414F9893487048C027B007C007E008A278B288C298E2A200566AA277B007C6B
:2005FB00007E008A278B288C298E2A8054300721E53424FCFE8E348E018702098703098731
:20061B00040987061919198A278B288C298E2A8030E53424FEFE8E348E0187040987061995
:20063B00EE3395E0FBFA8C278E288B298A2A200510AA27AB287C007E008A278B288C298EC9
:20065B002A300522E52A30E71BC3E49527FAE49528FBE49529FCE4952AFE8A278B288C296C
:20067B008E2A8002C205D209A9387E00752B00853582C006C00112024ED001D00620090B84
:20069B00E52BC4FCE7FB4CF7198002A72B0EB209E52745284529452A70D289388E05E5360D
:2006BB007003753601200224200121ED04FEAC36C3EE9C5015758220C006C005C00412017C
:2006DB00FBD004D005D0061C80E68C3630050E75822DC0051201FBD00515368023ED6020D7
:2006FB0030030E75822BC0051201FBD0051536800F30040C758220C0051201FBD0051536B0
:20071B00200126AE368E041EC3ED9C502F3002067B307C0080047B207C008B82C006C00586
:20073B001201FBD005D00680DCC3ED95365008E536C39DF536800775360080028E36A938B7
:20075B008D068E051EED6026B20920090A09E7C4540FFD8D2B80078705740F5DF52B852B4A
:20077B0082C006C00112021ED001D00680D42001030202BDAE368E051EED70030202BD7518
:1A079B008220C0061201FBD00680EB8F821201FB0202BD852C82852D832223
:0B0846003C4E4F20464C4F41543E00FA
:1807B500AA82AB831207CD6003A380F8C3E5829AF582E5839BF5832296
:0D00060075813B1207E9E5826003020003EB
:1C07CD0020F71430F6148883A88220F507E6A88375830022E280F7E49322E0223B
:0407E90075820022F3
:00000001FF
