:0400000002001132B7
:03000B000201549B
:05006A00E4F508F509B2
:0300790002000E74
:03000E000200F7F6
:20007C0075B1677E007F01EE24FFFCEF34FFFD8C068D07EC4D70F0E5B130E7FB75B2882275
:20009C00759850758920758DDCD28E438E10438780D29943A4012275FFDE75FFAD12007CEA
:2000BC0012009C43E10443E34022AF8210990280FB8F992210980280FBAF998F82C00712CE
:2000DC0000C6D0078F82222098057582FF800BC2988599821200C6859982221200B312018A
:2000FC002512013D1201431201677582201200C674EFC0E0740EC0E07480C0E01208661562
:20011C0081158115811202682253BDFE53A5FE43900153A6F043A00F43A630E5A775A7FF05
:20013C002243A802D2AF22438E085389F0438901C28CE4F58AF58C22C0E0C0D0C28D05089F
:20015C00E4B508020509D0D0D0E03275D10375AA8053ABFC85ABAB228582AC53AADF43AAF5
:20017C0010E5AA30E5FB859C8222D28C30A35D30A25AAE08AF0974362EFEE43FFFC3E5081F
:20019C009EE50964808FF063F08095F05012C2B0C2B1C2B2C2B3C2B4C2B5C2B6C2B780DD91
:2001BC0074362508FEE43509FFC3E5089EE50964808FF063F08095F050B2D2B0D2B1D2B2AB
:2001DC00D2B3D2B4D2B5D2B6D2B780DD227F00C0071207137519FF751A00120E7DAD82AED9
:2001FC0083D007BF03005040C00712071312074F1207137519FF751A00120E7DAC82D007F2
:20021C008C057C007E008CF005F0ED8002C313D5F0FB54012FFF0CBC00010EC3EC9408EE2E
:20023C006480948040E080BB8D067F00C005C006C00774F7C0E0740EC0E07480C0E0120810
:20025C0066E58124FBF581D0058D8222E4FFF50FF510FCC007C0041201861201E985820C00
:20027C00D004D00785080D85090E748D250DF87427350EFBC3E50898E50964808BF063F095
:20029C008095F04003020669BC0102800302035EC007C004C003C000740DC0E0740FC0E092
:2002BC007480C0E0120866158115811581D000D003D004D00774A82508FDE43509FEC3E5F0
:2002DC00089DE50964808EF063F08095F0502BD2A4C2A5C007C003C0007414C0E0740FC0A8
:2002FC00E07480C0E0120866158115811581D000D003D007EFF4F5B07C00AD08AE09743698
:20031C002DF511E43EF512C3E5089511E50964808512F063F08095F040ED30A303020290C7
:20033C00C0077428C0E0740FC0E07480C0E0120866158115811581D00785080F8509100292
:20035C000669EC6003020290C007C004C003C0007431C0E0740FC0E07480C0E01208661590
:20037C008115811581D000D003D004D007C2A4D2A5AD08AE0974362DF511E43EF512C3E56F
:20039C00089511E50964808512F063F08095F040ED20A30302043E20A20302043E758200AB
:2003BC00C007C004C003C000120174AA82D000D003D004D007BA11005009E5B075B0FFC273
:2003DC00B080CEBA22005009E5B075B0FFC2B180C0BA33005009E5B075B0FFC2B280B2BA03
:2003FC0044005009E5B075B0FFC2B380A4BA55005009E5B075B0FFC2B48096BA66005009CC
:20041C00E5B075B0FFC2B58088BA7700500AE5B075B0FFC2B60203ADE5B075B0FFC2B702E6
:20043C0003AD30A20302061FAD08AE0974362DFDE43EFEC3E5089DE50964808EF063F08024
:20045C0095F040EF758200C007C004C003C000120174AA82D000D003D004D2A4C2A5AD080B
:20047C00AE09C006C005C004C003C002C0007439C0E0740FC0E07480C0E0120866158115E6
:20049C00811581D000D002D003D004D005D006D007BA1100502C63070174512DF51174013F
:2004BC003EF512C3E5089511E50964808512F063F08095F0400302061FE5B075B0FFC2B03F
:2004DC0080E1BA2200502C63070274512DF51174013EF512C3E5089511E50964808512F07A
:2004FC0063F08095F0400302061FE5B075B0FFC2B180E1BA3300502C63070474512DF511C2
:20051C0074013EF512C3E5089511E50964808512F063F08095F0400302061FE5B075B0FFDB
:20053C00C2B280E1BA4400502C63070874512DF51174013EF512C3E5089511E5096480857F
:20055C0012F063F08095F0400302061FE5B075B0FFC2B380E1BA5500502C63071074512D35
:20057C00F51174013EF512C3E5089511E50964808512F063F08095F0400302061FE5B07524
:20059C00B0FFC2B480E1BA6600502963072074512DF51174013EF512C3E5089511E509643C
:2005BC00808512F063F08095F05058E5B075B0FFC2B580E4BA7700502563074074512DF949
:2005DC0074013EFAC3E50899E50964808AF063F08095F0502EE5B075B0FFC2B680E66307E6
:2005FC008074512DFD74013EFEC3E5089DE50964808EF063F08095F05009E5B075B0FFC2F6
:20061C00B780E630A30302029074362508FDE43509FEC3E5089DE50964808EF063F080953E
:20063C00F040EF7C01C007C004C003C0007448C0E0740FC0E07480C0E01208661581158135
:20065C001581D000D003D004D007020290EFB50C4F748D250DFD7427350EFEEDC3950FFDAA
:20067C00EE9510FE751951751A018D828E83C006C005120EB3AB82AC83D005D006C003C056
:20069C0004C005C0067457C0E0740FC0E07480C0E0120866E58124F9F581C2A4D2A5805661
:2006BC00EFB50C028050748D250DFB7427350EFCEBC3950FFDEC9510FEC007E4C0E0C0E0CB
:2006DC00C005C0067482C0E0740FC0E07480C0E0120866E58124F9F5817E00C00674B0C085
:1706FC00E0740FC0E07480C0E0120866E58124FBF581D2A4C2A522D6
:200EEF0053746172740D0A00636F6E76657274206E756D626572203A2030782578006D6F79
:200F0F006465310D00646973706C6179207573657220696E7075740A007375626D69746593
:200F2F000A006D6F6465300D0A006368616E67696E6720626974730A006D6F6465207377E2
:200F4F006974636865640D00416E7377657220636F727265637421200A09204F766572660C
:200F6F006C6F77733A2025642053636F72653A20256400416E7377657220496E636F7272BE
:200F8F0065637421200A09204F766572666C6F77733A2025642053636F72653A2025640ADF
:040FAF0000257800A1
:0A006F00751301E4F514F515F516FC
:2007130085131985141A85151B85161C904E6D75F0C6744112075EAC82AD83AEF0FF7439AC
:200733002CF51374303DF514E43EF515E43FF516AC15AD168C82747F5DF58322AE82AF8350
:0B0753008E138F147515007516002220
:06004000E478FFF6D8FD94
:20001E007900E94400601B7A00900FBE780175AF00E493F2A308B8000205AFD9F4DAF2759D
:02003E00AFFF12
:20075E00AAF0FBE5828519F0A4FCADF0E5838519F0A42DFDE435F0FEE582851AF0A42DFD25
:20077E00E5F03EFEE433FFEA8519F0A42EFEE5F03FFFE583851AF0A42EFEE5F03FFFE58298
:20079E00851BF0A42EFEE5F03FFFEB8519F0A42FFFEA851AF0A42FFFE583851BF0A42FFF68
:0E07BE00E582851CF0A42F8EF08D838C8222A4
:2007CC00E519451A60467A01E51925E0F519E51A334012F51AE5829519E583951A40030A72
:2007EC0080E6C3E51A13F51AE51913F519C3E5829519F5F0E583951A4005F58385F082C339
:0D080C00E51A13F51AE51913F519DAE122C2
:200046007800E84400600A790175AF00E4F309D8FC7800E84400600C7900900001E4F0A3A9
:04006600D8FCD9FAEF
:200819007A10E4FBFCE58225E0F582E58333F583EB33FBEC33FCEB9519F5F0EC951A4006D1
:09083900FCABF0438201DADD2280
:20084200C0188581181200C6D0182285823185833285F033E4F52EF52FF5308517349008EC
:200862004202093DC018858118E51824FBFF8F34E4F52EF52FF530E51824FBF8863108866F
:0D0882003208863390084212093DD018223A
:20088F00AF82C024C025C02612089C8007C022C0238F8222158115811581052CE4B52C027A
:2008AF00052D22AF8274302FFF24C6500A74072FFF3000034307208F8202088FE582FFC474
:2008CF00540FF582C0071208B2D007740F5FF5820208B285821985271A85281B85291C85B3
:2008EF002A1DAA2B751E20EA2AFAE51D235401FF8A064EFAE51A251AF51AE51B33F51BE546
:20090F001C33F51CE51D33F51DC3EA95194008EAC39519FA431A01E51E14FF8F1E70C8854B
:20092F001A27851B28851C29851D2A8A2B22858222858323852E24852F25853026E4F52C4E
:20094F00F52DAD31AE32AF338D828E838FF0120E61FC74012DF531E43EF5328F33ECFF707C
:20096F0003020E42BF25028003020E3AC201C202C203C204C205C206C207C208753500750D
:20098F0036007537FFAA31AB32AE338A828B838EF0120E61FFA3AA82AB838A318B328E3380
:2009AF00BF25078F8212088F8098BF3000402DEF24C6402874FFB53712E53675F00AA42F00
:2009CF00FC24D0F53670C4D20280C0E53775F00AA4FC8F05ED2C24D0F53780AFBF2E0A7413
:2009EF00FFB537A775370080A2BF6100400CEF248540075307DFD2008002C200BF2002808D
:200A0F006DBF2B028063BF2D028059BF42028063BF43028068BF4403020BE0BF4603020BEA
:200A2F00F6BF480302099ABF4903020BE0BF4A0302099ABF4C028040BF4F03020BE7BF5078
:200A4F0003020B75BF5302805ABF540302099ABF5503020BECBF5803020BF1BF5A0302090A
:200A6F009A020BFAD20102099AD20302099AD20402099AD20602099AD20702099A30060A1E
:200A8F00E53414F9893487078011E53424FEFE8E348E018705098706198D078F8212088F32
:200AAF00020C03E53424FDFE8E348E01870409870509870619198C278D288E298C828D8368
:200ACF008EF0120E49AD82AE8374FFB537028D37200126C3ED95365020E536C39DF536AE15
:200AEF00368E041EEC6010758220C006C00512088FD005D00680EA8E36AE378527828528C1
:200B0F00838529F0120E61FCFF602F8E041EC374808CF063F08095F050208F82C006C00553
:200B2F0012088FD005D006AA27AB28AC290ABA00010B8A278B288C2980C1200103020C037A
:200B4F00C3ED95364003020C03E536C39DF536AE368E041EEC7003020C01758220C0061220
:200B6F00088FD00680EBE53424FDFC8C348C01870209870309870419198A278B288C29AC64
:200B8F0029BC800040047F438014BC600040047F50800BBC400040047F4980027F588F821B
:200BAF00C00712088F75823A12088F75823012088F75827812088FD007BF4902800BBF5079
:200BCF000280068528821208CB8527821208CB8023D20575350A801C753508801775350A90
:200BEF008012753510800DD20880098F8212088F80028E3630085CE53424FCFE8E348E018E
:200C0F0087020987030987040987061919198A278B288C298E2A7527B375280F75298085C5
:200C2F00273985283A85293B74012539FAE4353AFCAE3B8A278C288E29853982853A83854D
:200C4F003BF0120E61FEFF70030209518F8212088F80CCE535700302095175384130062DCD
:200C6F00E53414F9893487048C027B007C007E008A278B288C298E2A200566AA277B007CD0
:200C8F00007E008A278B288C298E2A8054300721E53424FCFE8E348E018702098703098796
:200CAF00040987061919198A278B288C298E2A8030E53424FEFE8E348E01870409870619FB
:200CCF00EE3395E0FBFA8C278E288B298A2A200510AA27AB287C007E008A278B288C298E2F
:200CEF002A300522E52A30E71BC3E49527FAE49528FBE49529FCE4952AFE8A278B288C29D2
:200D0F008E2A8002C205D209A9387E00752B00853582C006C0011208E2D001D00620090B4F
:200D2F00E52BC4FCE7FB4CF7198002A72B0EB209E52745284529452A70D289388E05E53672
:200D4F007003753601200224200121ED04FEAC36C3EE9C5015758220C006C005C0041208DA
:200D6F008FD004D005D0061C80E68C3630050E75822DC00512088FD00515368023ED60200D
:200D8F0030030E75822BC00512088FD0051536800F30040C758220C00512088FD0051536DF
:200DAF00200126AE368E041EC3ED9C502F3002067B307C0080047B207C008B82C006C005EC
:200DCF0012088FD005D00680DCC3ED95365008E536C39DF536800775360080028E36A93882
:200DEF008D068E051EED6026B20920090A09E7C4540FFD8D2B80078705740F5DF52B852BB0
:200E0F0082C006C0011208B2D001D00680D4200103020951AE368E051EED700302095175AD
:1A0E2F008220C00612088FD00680EB8F8212088F020951852C82852D8322B7
:0B0FB3003C4E4F20464C4F41543E0086
:180E4900AA82AB83120E616003A380F8C3E5829AF582E5839BF5832260
:0D001100758141120EEBE582600302000EC6
:1C0E610020F71430F6148883A88220F507E6A88375830022E280F7E49322E022A0
:200E7D00C2D5E58330E70DD2D5E4C39582F582E49583F583E51A30E70BE4C39519F519E47A
:160E9D00951AF51A1207CC30D50BE4C39582F582E49583F58322C1
:200EB300C2D5E58330E70DD2D5E4C39582F582E49583F583E51A30E70DB2D5E4C39519F5B8
:180ED30019E4951AF51A12081930D50BE4C39582F582E49583F583223E
:040EEB0075820022EA
:00000001FF
