:0400000002001132B7
:03000B000201519E
:05006A00E4F508F509B2
:0300790002000E74
:03000E000200F7F6
:20007C0075B1677E007F01EE24FFFCEF34FFFD8C068D07EC4D70F0E5B130E7FB75B2882275
:20009C00759850758920758DDCD28E438E10438780D29943A4012275FFDE75FFAD12007CEA
:2000BC0012009C43E10443E34022AF8210990280FB8F992210980280FBAF998F82C00712CE
:2000DC0000C6D0078F82222098057582FF800BC2988599821200C6859982221200B312018A
:2000FC002212013A1201407582201200C67416C0E0740EC0E07480C0E012078D1581158181
:20011C0015811202E02253BDFE53A5FE43900153A6F043A00F43A630E5A775A7FF2243A897
:20013C0002D2AF22438E085389F0438901C28CE4F58AF58C22C0E0C0D0C28D0508E4B5080B
:20015C00020509D0D0D0E03275D10375AA8053ABFC85ABAB228582AC53AADF43AA10E5AAF7
:20017C0030E5FB859C8222D28C741EC0E0740EC0E07480C0E012078D15811581158120A31D
:20019C000302026020A203020260AE08AF0974362EFEE43FFFC3E5089EE50964808FF0634B
:2001BC00F08095F0502FC2B0C2B1C2B2C2B3C2B4C2B5C2B6C2B7C007C0067420C0E0740EC0
:2001DC00C0E07480C0E012078D158115811581D006D00780C030A20320A3177429C0E0741A
:2001FC000EC0E07480C0E012078D158115811581805274362508FEE43509FFC3E5089EE53E
:20021C000964808FF063F08095F0502FD2B0D2B1D2B2D2B3D2B4D2B5D2B6D2B7C007C006C6
:20023C007431C0E0740EC0E07480C0E012078D158115811581D006D00780C030A30630A2A7
:20025C000302019A227F00C00712063A751AFF751B00120DA4AD82AE83D007BF03005040BE
:20027C00C00712063A12067612063A751AFF751B00120DA4AC82D0078C057C007E008CF07C
:20029C0005F0ED8002C313D5F0FB54012FFF0CBC00010EC3EC9408EE6480948040E080BB62
:2002BC008D067F00C005C006C007743CC0E0740EC0E07480C0E012078DE58124FBF581D047
:2002DC00058D8222E4FFF50FF510FCC007C00412018312026185820CD004D00785080D8571
:2002FC00090E748D250DF87427350EFBC3E50898E50964808BF063F08095F040030205B1DF
:20031C00BC015CEFF4F51174A82508F512E43509F513C3E5089512E50964808513F063F041
:20033C008095F0502EC2A4D2A5C007C004C003C0007452C0E0740EC0E07480C0E012078D71
:20035C00158115811581D000D003D004D0078511B080BF20A39685080F8509100205B1ECB5
:20037C00708AD2A4C2A520A30302040E20A20302040E758200C007C004C003C0001201714E
:20039C00AE82D000D003D004D007BE20005004C2B080D3BE40005009E5B075B0FFC2B180C9
:2003BC00C5BE60005009E5B075B0FFC2B280B7BE80005009E5B075B0FFC2B380A9BEA00035
:2003DC005009E5B075B0FFC2B4809BBEC0005009E5B075B0FFC2B5808DBEE000500AE5B0BD
:2003FC0075B0FFC2B6020382E5B075B0FFC2B702038230A3030205A6758200C007C004C040
:20041C0003C000120171AE82D000D003D004D007D2A4C2A5AA08AD09BE2000502C630701F1
:20043C0074512AF51274013DF513C3E5089512E50964808513F063F08095F040030205A6F7
:20045C00E5B075B0FFC2B080E1BE4000502C63070274512AF51274013DF513C3E508951207
:20047C00E50964808513F063F08095F040030205A6E5B075B0FFC2B180E1BE6000502C6334
:20049C00070474512AF51274013DF513C3E5089512E50964808513F063F08095F040030237
:2004BC0005A6E5B075B0FFC2B280E1BE8000502C63070874512AF51274013DF513C3E5085B
:2004DC009512E50964808513F063F08095F040030205A6E5B075B0FFC2B380E1BEA000507A
:2004FC002C63071074512AF51274013DF513C3E5089512E50964808513F063F08095F04041
:20051C00030205A6E5B075B0FFC2B480E1BEC000502963072074512AF51274013DF513C38B
:20053C00E5089512E50964808513F063F08095F05058E5B075B0FFC2B580E4BEE00050250A
:20055C0063074074512AF974013DFEC3E50899E50964808EF063F08095F0502EE5B075B014
:20057C00FFC2B680E663078074512AFE74013DFDC3E5089EE50964808DF063F08095F050B7
:20059C0009E5B075B0FFC2B780E630A3030203087C01020308EFB50C4F748D250DFE742766
:2005BC00350EFFEEC3950FFEEF9510FF751A51751B018E828F83C007C006120DDAAC82AD03
:2005DC0083D006D007C004C005C006C007745AC0E0740EC0E07480C0E012078DE58124F96C
:2005FC00F581D2A4C2A58035748D250DFC7427350EFDECC3950FFEED9510FFE4C0E0C0E0C7
:1E061C00C006C0077485C0E0740EC0E07480C0E012078DE58124F9F581C2A4D2A52246
:200E160053746172740D0A006100426C696E6B790A0D0048657265200D0A00426C696E6B0B
:200E36007920320A0D00636F6E76657274206E756D626572203A2030782578006C6F636BA8
:200E560020696E00416E7377657220636F727265637421200A09204F766572666C6F7773C8
:200E76003A2025642053636F72653A20256400416E7377657220496E636F72726563742120
:1C0E9600200A09204F766572666C6F77733A2025642053636F72653A2025640044
:0A006F00751401E4F515F516F517F8
:20063A0085141A85151B85161C85171D904E6D75F0C67441120685AC82AD83AEF0FF743958
:20065A002CF51474303DF515E43EF516E43FF517AC16AD178C82747F5DF58322AE82AF8324
:0B067A008E148F1575160075170022F6
:06004000E478FFF6D8FD94
:20001E007900E94400601B7A00900EBD780175AF00E493F2A308B8000205AFD9F4DAF2759F
:02003E00AFFF12
:20068500AAF0FBE582851AF0A4FCADF0E583851AF0A42DFDE435F0FEE582851BF0A42DFDFC
:2006A500E5F03EFEE433FFEA851AF0A42EFEE5F03FFFE583851BF0A42EFEE5F03FFFE58270
:2006C500851CF0A42EFEE5F03FFFEB851AF0A42FFFEA851BF0A42FFFE583851CF0A42FFF3E
:0E06E500E582851DF0A42F8EF08D838C82227D
:2006F300E51A451B60467A01E51A25E0F51AE51B334012F51BE582951AE583951B40030A44
:2007130080E6C3E51B13F51BE51A13F51AC3E582951AF5F0E583951B4005F58385F082C30C
:0D073300E51B13F51BE51A13F51ADAE12298
:200046007800E84400600A790175AF00E4F309D8FC7800E84400600C7900900001E4F0A3A9
:04006600D8FCD9FAEF
:200740007A10E4FBFCE58225E0F582E58333F583EB33FBEC33FCEB951AF5F0EC951B4006A9
:09076000FCABF0438201DADD225A
:20076900C0198581191200C6D0192285823185833285F033E4F52EF52FF5308518349007C3
:2007890069020864C019858119E51924FBFF8F34E4F52EF52FF530E51924FBF886310886F8
:0D07A90032088633900769120864D01922C7
:2007B600AF82C024C025C0261207C38007C022C0238F8222158115811581052CE4B52C022E
:2007D600052D22AF8274302FFF24C6500A74072FFF3000034307208F820207B6E582FFC428
:2007F600540FF582C0071207D9D007740F5FF5820207D985821A85271B85281C85291D853D
:200816002A1EAA2B751F20EA2AFAE51E235401FF8A064EFAE51B251BF51BE51C33F51CE517
:200836001D33F51DE51E33F51EC3EA951A4008EAC3951AFA431B01E51F14FF8F1F70C8851C
:200856001B27851C28851D29851E2A8A2B22858222858323852E24852F25853026E4F52C24
:20087600F52DAD31AE32AF338D828E838FF0120D88FC74012DF531E43EF5328F33ECFF7030
:2008960003020D69BF25028003020D61C201C202C203C204C205C206C207C208753500759B
:2008B60036007537FFAA31AB32AE338A828B838EF0120D88FFA3AA82AB838A318B328E3334
:2008D600BF25078F821207B68098BF3000402DEF24C6402874FFB53712E53675F00AA42FB4
:2008F600FC24D0F53670C4D20280C0E53775F00AA4FC8F05ED2C24D0F53780AFBF2E0A74ED
:20091600FFB537A775370080A2BF6100400CEF248540075307DFD2008002C200BF20028066
:200936006DBF2B028063BF2D028059BF42028063BF43028068BF4403020B07BF4603020B9D
:200956001DBF48030208C1BF4903020B07BF4A030208C1BF4C028040BF4F03020B0EBF5091
:2009760003020A9CBF5302805ABF54030208C1BF5503020B13BF5803020B18BF5A0302084B
:20099600C1020B21D2010208C1D2030208C1D2040208C1D2060208C1D2070208C130060AEC
:2009B600E53414F9893487078011E53424FEFE8E348E018705098706198D078F821207B6E6
:2009D600020B2AE53424FDFE8E348E01870409870509870619198C278D288E298C828D831C
:2009F6008EF0120D70AD82AE8374FFB537028D37200126C3ED95365020E536C39DF536AEC9
:200A1600368E041EEC6010758220C006C0051207B6D005D00680EA8E36AE37852782852874
:200A3600838529F0120D88FCFF602F8E041EC374808CF063F08095F050208F82C006C00507
:200A56001207B6D005D006AA27AB28AC290ABA00010B8A278B288C2980C1200103020B2A08
:200A7600C3ED95364003020B2AE536C39DF536AE368E041EEC7003020B28758220C00612AE
:200A960007B6D00680EBE53424FDFC8C348C01870209870309870419198A278B288C29AC18
:200AB60029BC800040047F438014BC600040047F50800BBC400040047F4980027F588F82F5
:200AD600C0071207B675823A1207B67582301207B67582781207B6D007BF4902800BBF50BB
:200AF6000280068528821207F28527821207F28023D20575350A801C753508801775350A1E
:200B16008012753510800DD20880098F821207B680028E3630085CE53424FCFE8E348E0141
:200B360087020987030987040987061919198A278B288C298E2A7527B275280E75298085A1
:200B5600273985283A85293B74012539FAE4353AFCAE3B8A278C288E29853982853A838527
:200B76003BF0120D88FEFF70030208788F821207B680CCE535700302087875384130062D0F
:200B9600E53414F9893487048C027B007C007E008A278B288C298E2A200566AA277B007CAA
:200BB600007E008A278B288C298E2A8054300721E53424FCFE8E348E018702098703098770
:200BD600040987061919198A278B288C298E2A8030E53424FEFE8E348E01870409870619D5
:200BF600EE3395E0FBFA8C278E288B298A2A200510AA27AB287C007E008A278B288C298E09
:200C16002A300522E52A30E71BC3E49527FAE49528FBE49529FCE4952AFE8A278B288C29AB
:200C36008E2A8002C205D209A9387E00752B00853582C006C001120809D001D00620090B02
:200C5600E52BC4FCE7FB4CF7198002A72B0EB209E52745284529452A70D289388E05E5364C
:200C76007003753601200224200121ED04FEAC36C3EE9C5015758220C006C005C0041207B5
:200C9600B6D004D005D0061C80E68C3630050E75822DC0051207B6D00515368023ED60209A
:200CB60030030E75822BC0051207B6D0051536800F30040C758220C0051207B6D00515366D
:200CD600200126AE368E041EC3ED9C502F3002067B307C0080047B207C008B82C006C005C6
:200CF6001207B6D005D00680DCC3ED95365008E536C39DF536800775360080028E36A93836
:200D16008D068E051EED6026B20920090A09E7C4540FFD8D2B80078705740F5DF52B852B89
:200D360082C006C0011207D9D001D00680D4200103020878AE368E051EED70030208787515
:1A0D56008220C0061207B6D00680EB8F821207B6020878852C82852D83221F
:0B0EB2003C4E4F20464C4F41543E0088
:180D7000AA82AB83120D886003A380F8C3E5829AF582E5839BF5832214
:0D001100758141120E12E582600302000E9F
:1C0D880020F71430F6148883A88220F507E6A88375830022E280F7E49322E0227A
:200DA400C2D5E58330E70DD2D5E4C39582F582E49583F583E51B30E70BE4C3951AF51AE451
:160DC400951BF51B1206F330D50BE4C39582F582E49583F5832273
:200DDA00C2D5E58330E70DD2D5E4C39582F582E49583F583E51B30E70DB2D5E4C3951AF590
:180DFA001AE4951BF51B12074030D50BE4C39582F582E49583F58322EF
:040E120075820022C3
:00000001FF
